{
  "contractName": "Vote",
  "abi": [
    {
      "constant": true,
      "inputs": [
        {
          "name": "",
          "type": "uint256"
        }
      ],
      "name": "candidates",
      "outputs": [
        {
          "name": "",
          "type": "bytes32"
        }
      ],
      "payable": false,
      "stateMutability": "view",
      "type": "function",
      "signature": "0x3477ee2e"
    },
    {
      "constant": true,
      "inputs": [
        {
          "name": "",
          "type": "bytes32"
        }
      ],
      "name": "receivedVoteCount",
      "outputs": [
        {
          "name": "",
          "type": "uint8"
        }
      ],
      "payable": false,
      "stateMutability": "view",
      "type": "function",
      "signature": "0xf4a539f0"
    },
    {
      "constant": false,
      "inputs": [
        {
          "name": "_candidates",
          "type": "bytes32[]"
        }
      ],
      "name": "vote",
      "outputs": [],
      "payable": false,
      "stateMutability": "nonpayable",
      "type": "function",
      "signature": "0x4209c6d9"
    },
    {
      "constant": true,
      "inputs": [
        {
          "name": "candidate",
          "type": "bytes32"
        }
      ],
      "name": "voteCountOfCandidate",
      "outputs": [
        {
          "name": "",
          "type": "uint8"
        }
      ],
      "payable": false,
      "stateMutability": "view",
      "type": "function",
      "signature": "0xd3abef83"
    },
    {
      "constant": true,
      "inputs": [
        {
          "name": "candidate",
          "type": "bytes32"
        }
      ],
      "name": "validateCandidate",
      "outputs": [
        {
          "name": "",
          "type": "bool"
        }
      ],
      "payable": false,
      "stateMutability": "view",
      "type": "function",
      "signature": "0x2a0678b0"
    },
    {
      "constant": false,
      "inputs": [
        {
          "name": "candidate",
          "type": "bytes32"
        }
      ],
      "name": "voteForCandidate",
      "outputs": [],
      "payable": false,
      "stateMutability": "nonpayable",
      "type": "function",
      "signature": "0xcc9ab267"
    },
    {
      "constant": true,
      "inputs": [],
      "name": "getCandidateList",
      "outputs": [
        {
          "name": "",
          "type": "bytes32[]"
        }
      ],
      "payable": false,
      "stateMutability": "view",
      "type": "function",
      "signature": "0xfdbc4006"
    }
  ],
  "bytecode": "0x608060405234801561001057600080fd5b5061064f806100206000396000f3fe608060405260043610610083576000357c0100000000000000000000000000000000000000000000000000000000900463ffffffff1680632a0678b0146100885780633477ee2e146100db5780634209c6d91461012a578063cc9ab267146101ef578063d3abef831461022a578063f4a539f01461027f578063fdbc4006146102d4575b600080fd5b34801561009457600080fd5b506100c1600480360360208110156100ab57600080fd5b8101908080359060200190929190505050610340565b604051808215151515815260200191505060405180910390f35b3480156100e757600080fd5b50610114600480360360208110156100fe57600080fd5b8101908080359060200190929190505050610398565b6040518082815260200191505060405180910390f35b34801561013657600080fd5b506101ed6004803603602081101561014d57600080fd5b810190808035906020019064010000000081111561016a57600080fd5b82018360208201111561017c57600080fd5b8035906020019184602083028401116401000000008311171561019e57600080fd5b919080806020026020016040519081016040528093929190818152602001838360200280828437600081840152601f19601f8201169050808301925050505050505091929192905050506103bb565b005b3480156101fb57600080fd5b506102286004803603602081101561021257600080fd5b81019080803590602001909291905050506103d5565b005b34801561023657600080fd5b506102636004803603602081101561024d57600080fd5b8101908080359060200190929190505050610493565b604051808260ff1660ff16815260200191505060405180910390f35b34801561028b57600080fd5b506102b8600480360360208110156102a257600080fd5b8101908080359060200190929190505050610539565b604051808260ff1660ff16815260200191505060405180910390f35b3480156102e057600080fd5b506102e9610559565b6040518080602001828103825283818151815260200191508051906020019060200280838360005b8381101561032c578082015181840152602081019050610311565b505050509050019250505060405180910390f35b600080600090505b60018054905081101561038d578260018281548110151561036557fe5b90600052602060002001541415610380576001915050610393565b8080600101915050610348565b50600090505b919050565b6001818154811015156103a757fe5b906000526020600020016000915090505481565b80600190805190602001906103d19291906105b1565b5050565b6103de81610340565b1515610452576040517f08c379a00000000000000000000000000000000000000000000000000000000081526004018080602001828103825260178152602001807f496e76616c69642043616e646964617465204e616d652100000000000000000081525060200191505060405180910390fd5b600160008083815260200190815260200160002060008282829054906101000a900460ff160192506101000a81548160ff021916908360ff16021790555050565b600061049e82610340565b1515610512576040517f08c379a00000000000000000000000000000000000000000000000000000000081526004018080602001828103825260168152602001807f496e76616c69642043616e646964617465204e616d650000000000000000000081525060200191505060405180910390fd5b60008083815260200190815260200160002060009054906101000a900460ff169050919050565b60006020528060005260406000206000915054906101000a900460ff1681565b606060018054806020026020016040519081016040528092919081815260200182805480156105a757602002820191906000526020600020905b815481526020019060010190808311610593575b5050505050905090565b8280548282559060005260206000209081019282156105ed579160200282015b828111156105ec5782518255916020019190600101906105d1565b5b5090506105fa91906105fe565b5090565b61062091905b8082111561061c576000816000905550600101610604565b5090565b9056fea165627a7a723058207f5780aa1b913132a85c41722c1a5a422b52174d764cec7b978b90c2d68e30e80029",
  "source": "pragma solidity >=0.4.21 < 0.7;\r\n\r\ncontract Vote {\r\n\r\n    mapping (bytes32 => uint8) public receivedVoteCount;\r\n    bytes32[] public candidates;\r\n\r\n    function vote(bytes32[] memory _candidates) public  {\r\n        candidates = _candidates;\r\n    }\r\n\r\n    function voteCountOfCandidate(bytes32 candidate) public view returns(uint8) {\r\n        require(\r\n            validateCandidate(candidate),\r\n            \"Invalid Candidate Name\");\r\n        return receivedVoteCount[candidate];\r\n    }\r\n\r\n    function validateCandidate(bytes32 candidate) public view returns(bool) {\r\n        for(uint i = 0; i<candidates.length; i++){\r\n            if(candidates[i] == candidate){\r\n                return true;\r\n            }\r\n        }\r\n        return false;\r\n    }\r\n\r\n    function voteForCandidate(bytes32 candidate) public {\r\n        require(\r\n                validateCandidate(candidate),\r\n                 \"Invalid Candidate Name!\"\r\n        );\r\n        receivedVoteCount[candidate] += 1;\r\n    }\r\n\r\n    function getCandidateList() public view returns(bytes32[] memory) {\r\n        return candidates;\r\n    }\r\n}",
  "sourcePath": "S:/Projects/VotingApp/contracts/Vote.sol",
  "compiler": {
    "name": "solc",
    "version": "0.5.0+commit.1d4f565a.Emscripten.clang"
  },
  "schemaVersion": "3.0.2",
  "updatedAt": "2020-02-20T16:43:22.146Z",
  "devdoc": {
    "methods": {}
  },
  "userdoc": {
    "methods": {}
  }
}